:020000040800F2
:10000000000002202D23000879230008A104000825
:10001000A9040008B1040008B904000800000000A9
:10002000000000000000000000000000FD9D00082E
:100030007923000800000000B99D0008F99C000821
:100040007923000879230008792300087923000820
:100050007923000879230008792300087923000810
:100060007923000879230008792300087923000800
:1000700079230008792300087923000879230008F0
:100080007923000879230008792300080000000084
:1000900000000000000000000000000079230008BC
:1000A00079230008792300087923000879230008C0
:1000B00079230008792300087923000879230008B0
:1000C00079230008792300087923000879230008A0
:1000D0007923000879230008792300080000000034
:1000E0007923000879230008792300080000000024
:1000F000000000000000000000000000792300085C
:100100000000000079230008792300087923000803
:1001100000000000000000000000000000000000DF
:10012000792300087923000879230008792300083F
:10013000792300080000000000000000000000001B
:10014000000000000000000000000000792300080B
:10015000792300087923000879230008792300080F
:100160007923000879230008000000000000000047
:10017000000000000000000000000000000000007F
:1001800000000000792300080000000000000000CB
:10019000792300087923000810B5054C237833B97A
:1001A000044B13B10448AFF300800123237010BD4A
:1001B000E807002000000000E0D1000808B5034B6C
:1001C0001BB103490348AFF3008008BD00000000E5
:1001D000EC070020E0D10008A3F5803A704700BF8B
:1001E000174B002B08BF134B9D46FFF7F5FF00216F
:1001F0008B460F461348144A121A0BF005FC0E4B9F
:10020000002B00D098470D4B002B00D098470020C2
:10021000002104000D000D48002802D00C48AFF367
:1002200000800BF0E3FA2000290003F001FC0AF043
:10023000D5FE00BF0000080000000000691600089D
:1002400000000220E8070020A01D002000000000A0
:1002500000000000704710B55021044601F000F97D
:10026000204610BD37B50546044655F8043B9B684B
:100270009847284600F03CF823688DED010ADB68BA
:10028000204698479DED010A03B030BD0346006843
:1002900018B9186808B9181D1860704708B50248E1
:1002A000FFF7F4FF08BD00BF0408002008B50248AE
:1002B000FFF7ECFF08BD00BF0408002073B505463A
:1002C000094B0A4E45F8043B044630460191FFF7BE
:1002D000DDFF0199284600F019F83046FFF7D6FFF8
:1002E000204602B070BD00BF68C8000804080020A6
:1002F00008B500F063F807EE900AB8EE670ADFED84
:10030000027A20EE270A08BD01088039A1F1F00326
:100310009BB20F2B73B504460D4638D922492846A7
:1003200000F032FE20492060284600F04DFE1E49B4
:100330000646284600F0E4FD01222168E2611B4ADE
:10034000A4F848500023C6F384369142C4E901332F
:10035000C4E90833C4E90A3384F84A60236423619A
:10036000A361E360236363610AD10193104B5A6C6C
:1003700042F480725A645B6C03F480730193019BB6
:10038000204602F02BF868B10A4800F063FC0A49E5
:10039000284600F0F9FD08492060284600F014FEC8
:1003A0000646C9E702B070BD9CCB000800200140A2
:1003B0000038024078C8000850CC000830B585B03D
:1003C00090F84A1001230022CDE90133044603923C
:1003D00012294FD8DFE801F00A2726292B2D2F31CB
:1003E000333537393B3D3F4143484A000092224D67
:1003F0006B6823F4400369466B60204602F046F9BF
:10040000204602F08FF80A21204602F0EBF878BB74
:10041000204602F037F980B26B6823F440036B602A
:1004200005B030BD02230093E1E70323FBE704237B
:10043000F9E70523F7E70623F5E70723F3E70823A2
:10044000F1E70923EFE70A23EDE70B23EBE70C23A2
:10045000E9E70D23E7E70E23E5E70F23E3E7074B83
:10046000009307230293C2E71123F9E71223F7E76A
:100470000020D1E70020D3E7002301401200001044
:10048000C36810B504460BB19B689847204610BD61
:10049000024B1B6803B11847704700BF0C080020CF
:1004A0004FF0100300F00CB84FF0200300F008B834
:1004B0004FF0300300F004B84FF0400300F000B8F4
:1004C000EFF308804FF0040172460A4201D0EFF3C7
:1004D00009809C46254B196802680A60043142680D
:1004E0000A60043182680A600431C2680A6004311B
:1004F000F0C147460F6004314F460F600431574644
:100500000F6004315F460F60043102690A600831F0
:1005100042690A60043182690A600431C2690A6072
:100520000431034620334FF40076324200D00433C6
:1005300075464FF01006354200D148330C46103C4A
:100540002360EFF309820A600431EFF308820A6046
:10055000043172460A600431EFF314820A60604687
:10056000024B196800F04AFCFEE70000F8CA0008D8
:10057000007B704738B50B4B03600023C0E90131A5
:1005800004460D4602730848FFF780FE45B1074B4D
:100590001A6862601C600448FFF778FE204638BD88
:1005A0006560F8E7A0C800081408002010080020C3
:1005B00010B5124B036004461148FFF767FEA368AD
:1005C0002BB1104962680B68A34210D10A600E4B30
:1005D0000B481A68A24204BF00221A60FFF756FEB9
:1005E000237B13B9201F00F03FFF204610BD1946A2
:1005F0005B68A342FBD14A60E9E700BFA0C80008DE
:1006000014080020100800201C08002010B5044623
:10061000FFF7CEFF2046102100F022FF204610BD3C
:10062000F8B5064614480D46FFF730FE134B1C681C
:1006300094B1A76877B138460BF0B1FDA84209D153
:100640002A46314638460BF0C3F918B90A48FFF775
:100650001DFE0FE06468EBE7072DF7D108482A4636
:1006600031460BF0B5F90028F0D10348FFF70EFE34
:10067000044B1C682046F8BD140800201008002018
:100680008EC800081C08002000207047002070471A
:10069000036801221B6900211847036800221B69B7
:1006A000114618476FF01500704703681B6918471B
:1006B00003689B69184703689B6A184700290CBFA9
:1006C0006FF0180000207047012070476FF0150090
:1006D00070476FF01500704711207047704703682E
:1006E00070B51B690122002104469847051E0DDBE9
:1006F000236802221B69002120469847236806468A
:1007000029461B690022204698473546284670BD79
:1007100070B50D460026C0E900660C49044628461F
:100720000BF045FD28442060314623681A782F2AB3
:1007300006D101332360FFF773FF6060204670BD70
:10074000002AF8D0013301312360EEE704C9000824
:1007500000687047406808B520B1FFF709FF431EE5
:100760005842584108BD10B50446FFF7F3FF10B1D9
:10077000606800B1043810BD406808B520B1FFF7CB
:10078000F7FEB0FA80F0400908BD10B50446FFF747
:10079000F3FF10B1606800B1043810BD4068003844
:1007A00018BF0120704730B591FAA1F391FAA1F179
:1007B000B3FA83F304685B000325B1FA81F105FA0B
:1007C00003F3490024EA03038A401343036030BD66
:1007D0007FB52B4B002207284FD8DFE800F004122A
:1007E0001E2A364E4E4200921A6B264842F00102F3
:1007F0001A631B6B03F001030093009B07B05DF8C5
:1008000004FB01921A6B204842F002021A631B6B30
:1008100003F002030193019BF0E702921A6B1B485D
:1008200042F004021A631B6B03F004030293029B61
:10083000E4E703921A6B164842F008021A631B6B36
:1008400003F008030393039BD8E704921A6B114843
:1008500042F010021A631B6B03F010030493049B15
:10086000CCE705921A6B0C4842F080021A631B6BAE
:1008700003F080030593059BC0E7084800F0EAF900
:10088000003802400000024000040240000802401C
:10089000000C024000100240001C024006C9000883
:1008A00010B54FF47071044604F00F0401F01AF90A
:1008B0000120A04010BD00004B1C70B504460E4640
:1008C000018216D0C1F30310FFF782FF05463046C0
:1008D000FFF7E6FF238A074A656103F00F032060F4
:1008E00052F82330A36105F110031835C4E902550D
:1008F000636070BD28CD0008B0F9100001F06EB93A
:100900000A46D0E905010AB9FFF74DBF0122FBE70E
:1009100008B502F05FFD002008BD000008B50A4BD5
:100920001B684BB101F094F801F080F84FF47A7233
:1009300000230AF0D1F908BD044B586A4FF47A73CA
:10094000B0FBF3F0F7E700BFB8080020000C004050
:10095000C36810B504460BB19B689847204610BD8C
:10096000036818470B68036070477047884238B5C2
:1009700004460D460ED0FFF783FD102200212046CD
:100980000BF042F8EB681BB15B682946204698479C
:10099000EB68E360204638BD10B5044621B910224B
:1009A0000BF032F8204610BD0022034B42608260FB
:1009B0000160C360F6E700BF28C9000803460122B2
:1009C000D3E84F0FC3E8412FC0B20029F8D17047D8
:1009D000D0E85F3F5B18C0E8523F002AF8D198B2D8
:1009E0007047D0E85F3F5B1AC0E8523F002AF8D159
:1009F00098B27047D0E84F3FC0E8421FD8B2704766
:100A000000B589B000F07AF8052101A800F064FA79
:100A1000114E124D0424039B019A1A60304601F0D6
:100A200025F8019B049A1B041360304601F01EF860
:100A3000013CF0D10424039B019A1A60284601F07E
:100A400015F8019B049A1B041360284601F00EF868
:100A5000013CF0D1DEE700BFF0490200801A060039
:100A600007B5014600220190022000F0F5FB00F0DE
:100A700045F8019908460BF092FB019902460220C5
:100A800000F0EAFB03B05DF804EB00F041B80000B1
:100A900000B5A3B002460B4601A884210BF0C4FBAD
:100AA000832806D9074B1A681B79CDF883208DF867
:100AB0008730002802DD01A8FFF7D2FF23B05DF8E0
:100AC00004FB00BF34C900080FB407B504A951F8EE
:100AD000040B0191FFF7DCFF03B05DF804EB04B0F9
:100AE0007047EFF31080C04300F001007047EFF350
:100AF0000580003818BF01207047000008B500F0DD
:100B000013F8024A13680133136008BD200800205F
:100B1000044A136823B1013B13600BB900F016B807
:100B2000704700BF20080020EFF3108372B6054A1B
:100B3000117831B90449DB4303F001030B70012341
:100B4000137070472508002024080020034B002262
:100B50001A70034B1B7803B162B67047250800205A
:100B60002408002008B50B48FFF728FF28B1FFF73D
:100B7000C5FFBFF34F8F20BFFDE7FFF7B8FF08B1F8
:100B8000FFF73EFFFFF7ADFF0028F9D001200AF084
:100B900025FA00BF7408002070B51D4C90B034EAEF
:100BA000200428BF04460D4616460021342203A81F
:100BB0000AF02AFFCDE900460295FFF79FFF154A8C
:100BC00013680133012B13600BD16D460FCD124C0E
:100BD0000FC40FCD0FC40FCD0FC495E80F0084E8EC
:100BE0000F006C460FCC0D4D0FC50FCC0FC50FCCB1
:100BF0000FC594E80F0085E80F00094B1B6813B17F
:100C0000A5F130009847FFF783FF002010B070BDBA
:100C10000101FF8028080020340800207808002007
:100C20002C08002030B50A4D034600F13C0400209A
:100C300013F8012B80EA0260082200284FEA4000E6
:100C4000B8BF6840013AF8D1A342F1D130BD00BF2E
:100C5000B71DC1040FB407B501210648CDF804E063
:100C6000FFF7C8FE019A014610B90348FFF794FF49
:100C7000FFF778FF300800200001FF8008B5044628
:100C800001211D4876461546FFF7B4FE20B93246CD
:100C900029462046FFF780FF1848194C174DFFF7EB
:100CA000C1FF184BD3F8BC2082420ABFD3F8B4303E
:100CB00001230133636320460023A363FFF7B2FFE0
:100CC000E063FFF71BFF0FCC0FC50FCC0FC50FCC98
:100CD0000FC594E80F0085E80F00FFF719FFBFF379
:100CE0004F8F0949094BCA6802F4E0621343CB6095
:100CF000BFF34F8F00BFFDE730080020180200202F
:100D0000780800209801002000ED00E00400FA05BA
:100D1000F0B52C4E2C4F85B000243546214656F8B0
:100D2000042B38460134FFF7CFFE0D2CF6D1AB6C07
:100D300002936B6C01932B6C244C0093D5E90E232A
:100D4000696B2348FFF7C0FE21682248FFF7BCFE0D
:100D5000E16AA26AA36AA06A266BE76B000CCDE980
:100D600001670090C3F307231B48D2B2FFF7ACFE24
:100D7000A36A1E0603D5616B1848FFF7A5FEA36A98
:100D8000180403D5A16B1648FFF79EFEEB6C1907FC
:100D900012D51448FFF798FE2B6DDA070FD51248CD
:100DA000FFF792FEEB6C5B074CBF1048104805B094
:100DB000BDE8F040FFF788BE0E48FFF785FE0E48FD
:100DC000EEE700BF9801002039C9000800ED00E0FF
:100DD00047C9000896C90008A4C90008F3C900085B
:100DE00001CA00080FCA00081ECA00084ECA00083F
:100DF0005ACA00083ECA00082BCA000813B50446A8
:100E00001548FFF761FE302C17D0402C1AD0202C4B
:100E10001DD11248124CFFF757FE1248FFF754FE3F
:100E2000FFF776FF1048FFF74FFE104A10490023E6
:100E30000093D26B2046FFF721FF0E480E4CFFF7C0
:100E400043FEEAE70D480E4CFFF73EFEE5E70D488E
:100E50000D4CFFF739FEE0E766CA00088FCA0008AC
:100E60003E01FF80BCCA0008C7CA000898010020E4
:100E7000E6CA00089ECA00083F01FF80A7CA000812
:100E80004001FF80B2CA00083D01FF8038B5036809
:100E900004460D465AB18268136020460121FFF7CF
:100EA0002FFD29462046BDE83840FFF725BDC26822
:100EB0001B04F1E737B50D4604460192FFF7FCFC31
:100EC000013507D0019A0021204603B0BDE830402B
:100ED000FFF7DCBF03B030BD0022FFF7EBBF00001F
:100EE00008B502F025FA01F049FA02F013FA02F00F
:100EF0001FFA024B01221A6008BD00BFB80800208B
:100F00001FB5431C10D105B05DF804FB83420AD124
:100F10008968039000F0E6FD0398002105B05DF8B4
:100F200004EB00F05BBE0C31B1F900305A1CEDD17E
:100F300000230246009302481946FFF79FFE00BFB8
:100F400030010180884207B502460AD0431C08D010
:100F5000013105D00023054800931946FFF78EFEA6
:100F60000146084603B05DF804FB00BF3001018074
:100F7000B1F900305A1C01D118467047834201D1A3
:100F8000486870470C31F3E7421C13B504460AD099
:100F9000FFF7EEFF431C06D10023044800932246CE
:100FA0001946FFF76BFE02B010BD00BF3001018093
:100FB000B1F900305A1C01D118467047834201D163
:100FC000886870470C31F3E7421C13B504460AD019
:100FD000FFF7EEFF431C06D100230448009322468E
:100FE0001946FFF74BFE02B010BD00BF3001018073
:100FF00013B5074C01212046FFF7EAFC034628B948
:101000000090014622880348FFF738FE02B010BD69
:10101000BC0800202301048013B5094C012120469F
:10102000FFF7DFFC4FF6FF73984206D100232288BA
:10103000044800931946FFF721FE02B010BD00BF1F
:10104000BC080020240104806FF01C0070476FF082
:10105000150070470120704700207047704700005E
:10106000F8B5074E15460C468F18BC4205D014F84B
:10107000011B304601F020F8F7E72846F8BD00BF15
:10108000081C002038B511F001048DB205D00848C5
:1010900000F040FE041E18BF0124EB0605D50448ED
:1010A00000F04EFE08B144F01004204638BD00BFE9
:1010B000081C002010B504460AF02CFC204610BD88
:1010C00010B50C462AB1044800F0E4FF207001205E
:1010D00010BD1046FCE700BF081C002038B51D46B7
:1010E000074B0360074B1B68044633B9064800F002
:1010F00077FE0548294600F059FE204638BD00BF5E
:1011000004CB000810090020081C002000207047B4
:101110000020704708B5012009F060FF074A084920
:1011200013681844884289BF064B10600C224FF0A8
:10113000FF308CBF1A601846704700BF9C03002028
:1011400000FC0120981D00200120704700210AF0BA
:101150000BBF7047704708B5FFF7FBFF08BD08B528
:10116000FFF7F8FF08BD037803F00303012B09D054
:10117000037803F00302012A04D043F00203037052
:101180000120704700207047037823F0030343F0E9
:1011900001030370704700003F2870B504462FDC40
:1011A000184D55F820305A1C13D1022811DCFFF7D6
:1011B000AFFF034658B92046FFF7A8FF034630B9F2
:1011C000114E3378BFF35B8FDB0704D50F4B45F827
:1011D0002430184670BD3046FFF7C5FF0028F5D013
:1011E0004FF41653032202210848FFF777FF3046D9
:1011F000FFF7CAFF064A07490448FFF7A5FFE5E7DE
:101200000023E6E79C020020C0080020CC08002054
:10121000980200205D10000838B50546FFF7BCFFB6
:101220000B4B002443F8254030B909F0D1FE0923C7
:1012300003604FF0FF3038BD03685B699847051EB7
:1012400004DA09F0C5FE6D420560F2E72046F2E7D8
:101250009C020020FFF7E0BF13B5CDE90021FFF7A6
:101260009BFFDDE9002140B909F0B2FE09230360CC
:101270004FF0FF34204602B010BD0368DB6898478A
:10128000041EF7DA09F0A4FE64420460F0E708B532
:10129000131E07DA09F09CFE162303604FF0FF339C
:1012A000184608BDFCD0FFF7D7FF40EAE073F7E728
:1012B00013B5CDE90021FFF76FFFDDE9002140B94B
:1012C00009F086FE092303604FF0FF34204602B088
:1012D00010BD03689B689847041EF7DA09F078FE92
:1012E00064420460F0E7002A08B503DBBDE808406B
:1012F000FFF7DEBF09F06CFE162303604FF0FF30EE
:1013000008BD10B5FFF748FF044628B909F060FE94
:1013100009230360204610BD0368DB699847041E5B
:10132000F8DA09F055FE644204600024F2E737B5AC
:101330004023CDF80100054668468DF800300AF0DC
:10134000D3F8044630B12846FFF7DBFF10B1204642
:10135000FFF7FCFE204603B030BDFFF7D2BF13B548
:10136000CDE90021FFF718FFDDE9002140B909F0C0
:101370002FFE092303604FF0FF34204602B010BD5A
:1013800003681B699847041EF7DA09F021FE6442DE
:101390000460F0E7FFF7E3BF10B5FFF7FDFE30B9DB
:1013A00009F016FE092303604FF0FF3010BD0368FB
:1013B0009B699847041E04DA09F00AFE644204603F
:1013C000F2E70020F2E700000A4D08B52B6804465A
:1013D000986809F04DFF2B68D86809F049FF012093
:1013E000FFF7DAFF0220FFF7D7FF0CB1FFF708FB8A
:1013F000FEE700BF7007002038B50D46FFF7CCFEB2
:10140000044630B909F0E4FD092303604FF0FF30D2
:1014100038BD0368DB699847002814BF4FF40053B8
:101420004FF400436B60236820469B6A984728610D
:101430000020EDE7FFF7E0BF1FB503900AF062FA66
:10144000039A034620B9009001460348FFF716FCB3
:1014500005B05DF804FB00BF1F010180FFF7ECBF82
:101460000AF058BA0AF056BA10B504460848FEF712
:101470000DFF084A4023002152F8040BA04208BF88
:1014800042F8041C013BF7D10148FEF7FFFE10BDF6
:10149000C40800209C02002010B50F48FEF7F6FE9D
:1014A0000E4B032453F824206AB10134402CF9D1A7
:1014B00009F08EFD182303600748FEF7E7FE4FF0A2
:1014C000FF34204610BD4FF0FF32034843F824207C
:1014D000FEF7DCFEF5E700BFC40800209C020020F8
:1014E00010B50446FFF7D8FF0028A4BF014B43F80E
:1014F000204010BD9C02002073B506460191FFF705
:10150000EFFF051E13DB0199FFF711FF044630B909
:10151000084B53F82520964204D143F82500204675
:1015200002B070BD09F054FD09230360F7E7002401
:10153000F5E700BF9C0200200EB42DE9F04187B012
:101540000190FFF7A9FF041E13DB00230199039309
:1015500004A8FFF7DDF804A8FFF720F91B4E0546A5
:1015600068B909F035FD1323036046F824504FF0A5
:10157000FF34204607B0BDE8F04103B0704704A82F
:10158000FFF7FAF8074604A837B1FFF7FEF8039013
:10159000039B46F82430ECE7FFF7E5F80546002802
:1015A000DFD0036804A8D3F80880FFF7D1F80D9BBB
:1015B000024603A92846C04705460028E8D009F09E
:1015C00007FD6D42056046F82470D0E79C020020BC
:1015D00070B50E46154905460AF0D7FD044618B900
:1015E000FFF7DAFD204670BD114928460AF0CDFD0F
:1015F00020B90120FFF7D0FD0124F3E70D4928466B
:101600000AF0C3FD20B90220FFF7C6FD0224E9E776
:101610002B78402B02D1D5F80140E3E726F40041B6
:101620002846BDE87040FFF787BF00BF60CB0008C9
:1016300067CB000858CB000870470000084B0949E9
:1016400098684FF00053C21802F16042126843F8E4
:10165000042B8B42F7D1024B4FF000529A60704737
:1016600000ED00E09801002008B5FFF7E7FFFFF765
:1016700037FC01F003FFFFF7DFFF08BD2DE9F74F4F
:10168000446894F83A100646002955D10168496823
:1016900088477168096A814205464DD0206AE16831
:1016A000A6682562281A0140384886428C464FF0C9
:1016B000000E39D094F83BB0D4E90A5A0027A1FBB8
:1016C0000001BBF1000F46D0CBF1200801FA08F869
:1016D00020FA0BFCABF1200E21FA0EFE4CEA080CAE
:1016E0004CEA0E0C2D1821FA0BFEABF120094AEB47
:1016F000010ACBF120080EFA0BF10CFA09F941EAC4
:1017000009012CFA08F80CFA0BF02B1A41EA08012F
:1017100000936AEB01030193DDE90023BB4208BF9C
:10172000B2420CD2C4E90A23D4E90C0110EB0C003C
:1017300041EB0E01C4E90C0103B0BDE8F08F009B42
:101740001CF1010C4EF1000E9A1B019B63EB070389
:10175000C4E90A23E8E732463B4609F0BDFA12EB3A
:10176000050843EB0A09B94508BFB04584468E46D3
:1017700002D2C4E90A89D7E710F1010C41F1000E49
:10178000B8EB060269EB0703E2E700BF40420F0037
:10179000824206D98A420BD9884294BF0020012098
:1017A0007047884206D98A428CBF002001207047CA
:1017B00001207047002070472DE9F74FD0F80480D2
:1017C00098F83A300746002B40F0818098F839307D
:1017D000002B7CD1FFF752FF7E683A687368019254
:1017E000002B66D0D6E90C01D3E90023994208BF4B
:1017F000904205D3019B5B6903B0BDE8F04F1847E9
:10180000141A63EB0105D6E90623AB4208BFA242D6
:10181000D6F8109006D3B2682E4B9A4219D1A14542
:1018200028BFA146326A019B9144F2681B6909EA0C
:1018300002021046019298473B685B689847019AFC
:101840000146D8F82000FFF7A3FF00283FD03B68EF
:10185000D1E796F83B30EBB1A3F1200CC3F12002A5
:1018600024FA02F204FA03F005FA03F104FA0CFC7C
:10187000194C41EA0C0111430019164A4FF00004BB
:101880004FF0000344EB010109F026FA814528BF1F
:101890008146C7E71048A2FB04AB02FB05BB1AEB6D
:1018A00000004FF000010B4A4FF000034BEB010129
:1018B000EAE7D8F81030D8F82000D8F80C201844FF
:1018C000019B1B69104003B0BDE8F04F184703B0FF
:1018D000BDE8F08F40420F003F420F002DE9F04F6E
:1018E000436893F8382085B00546002A63D193F801
:1018F0003A30002B5FD103681B6898472B68DB697F
:10190000984703682BB92D4800931A461946FFF7EC
:10191000B5F91F21012202FA01F4A3425FFA81FA0C
:1019200002D00139F7D18A464668321F1C2A05D9F0
:101930000023234800931A461946E8E71C4614F191
:10194000FF384FF000031F494FF0070743F1FF39FD
:101950009740C1FB078922464046494609F0BCF939
:101960006B682A6803934FF00008C3E90088526847
:10197000894683469047039B0122186202FA06F6C5
:101980006B6800210020013EC3E90A01C3E90C0194
:10199000C3E903672846C3E906B99C6083F83BA006
:1019A0001A8783F83A80FFF769FE284605B0BDE83C
:1019B000F04FFFF701BF05B0BDE8F08F0E010480C6
:1019C0000501048040420F0070B50446FFF796F809
:1019D0002368DB689847636893F83A201AB1BDE83A
:1019E0007040FFF795B8012283F8392063685B687F
:1019F000A3B12046FFF742FE65686E68D5E90C0189
:101A0000D6E90023994208BF904207D3F3686B6080
:101A10002B68002BEAD0B0689847E7E7636800229C
:101A200083F839202046FFF7C7FED8E738B50446CB
:101A3000FFF754FFFFF762F82046FFF71FFE6368C9
:101A4000D3E90C45FFF764F82046294638BD7047B6
:101A50000048704770CB0008024B1B680BB102486E
:101A600018477047A003002070CB0008034B596A49
:101A70005A6A521A8242FBD3704700BF000C0040E2
:101A800030B591FAA1F391FAA1F1B3FA83F3846826
:101A90005B000325B1FA81F105FA03F3490024EA5A
:101AA00003038A401343836030BD30B591FAA1F33C
:101AB00091FAA1F1B3FA83F3C4685B000325B1FA8C
:101AC00081F105FA03F3490024EA03038A40134332
:101AD000C36030BD012A02D0022A18BF0022FFF7DE
:101AE000E4BF00002DE9F84300F00F023A4B1FFA63
:101AF00080F9C0F3031053F82270C1F3831801F08A
:101B000007060D46FEF764FEB8F10F0F0CBF032267
:101B1000424639460446FFF7B3FF022E28D0032E73
:101B200058D0711E4B424B4197FAA7F2B2FA82F29B
:101B300021685200032000FA02F221EA020197FA1A
:101B4000A7F2B2FA82F252009340013E0B43012EFB
:101B5000236005D863682A074CBF3B43BB436360DF
:101B6000C5F3011239462046BDE8F843FFF7B2BF7E
:101B700019F0080FC5F3832217D03B0A93FAA3F19B
:101B8000B1FA81F1406A93FAA3F389004FF00F0C88
:101B9000B3FA83F30CFA01F19B0020EA010102FA87
:101BA00003F30B4363620223BEE797FAA7F1B1FA8E
:101BB00081F1036A89000F2000FA01F123EA010193
:101BC00097FAA7F3B3FA83F39B0002FA03F30B43EC
:101BD0002362E8E73346A7E728CD000838B500F0D0
:101BE0000F021F4BC0F3031053F822500C46FEF7B0
:101BF000EFFD95FAA5F2B2FA82F35A0001680323C9
:101C0000934095FAA5F2B2FA82F20B405200D3400B
:101C1000013B012B1AD8E31E022B436809D82B4342
:101C2000032C43601AD101222946BDE83840FFF752
:101C300051BF23EA0503012C4360F4D0022C0BD0E2
:101C400029460022BDE83840FFF72FBF04F0FD030E
:101C5000012BE8D0052CF1D10222E5E7052CEEE7B7
:101C600028CD0008704700F071BAA0F1B400FFF76A
:101C7000FABF00F06EBAA0F1B400FFF7FABF00009F
:101C80000A4B10B503F10802026003F128029433F5
:101C90000446C0F8B420C0F8B830B43001F056FAA9
:101CA000204600F001FB204610BD00BF68CD0008B3
:101CB000A0F1B400E4E7A0F1B800E1E710B50446F4
:101CC000FFF7DEFF2046D021FFF7CAFB204610BDFC
:101CD000A0F1B400F2E7A0F1B800EFE77047704759
:101CE00038B504461D46049B00F03AFA294604F133
:101CF000B40001F003FA064B03F10802226003F17D
:101D000028029433C4F8B420C4F8B830204638BD53
:101D100068CD00084368094A9B0182B0D3581A680D
:101D2000120706D5002201921A6801925A680192A0
:101D3000019A1868C0F3401002B07047541C00208C
:101D40004368034A9B01D3581868C0F3C01070471A
:101D5000541C002003464068134A810110B41C68DB
:101D60008C5002EB80109A684260DA6882601A69CF
:101D7000C2605A6902611A6A82610022C284C26129
:101D80008284C2858285B3F91A20013205D10823E5
:101D90005DF8044B436101F048B9B3F918300133E1
:101DA0000CBF04230C23F3E7541C00208160FFF7D1
:101DB000D1BF0000094B98420BD0A3F54C43984289
:101DC00009D003F55043984214BF4FF0FF30022072
:101DD0007047002070470120704700BF001001408D
:101DE000F0B50E4685B04149044630461546FFF72A
:101DF000CBF83F4907462846FFF7C6F80146384664
:101E0000FFF7A0F8022E20600AD0032D08D0374932
:101E10000220FFF7B9F8B84244D13648FEF71AFF5E
:101E20000127354B206898424FF000033CD10193C5
:101E3000324B5A6C42F010025A645B6C03F0100390
:101E40000193019BFFF7B6FF284960603046FFF71A
:101E500057F828462649FFF753F8701C03D0012194
:101E60003046FFF7BBFE691C03D001212846FFF76F
:101E7000B5FE00234FF41652C4E90223C4E904332B
:101E80002362268365832046FFF764FF5FB31C4B04
:101E90001C4801221A6021464C2205B0BDE8F040E2
:101EA00009F0A4BD0027BCE7174A90420FD002F505
:101EB00050429042C6D10393104B5A6C42F020021C
:101EC0005A645B6C03F020030393039BBAE702930D
:101ED0000A4B1A6C42F400321A641B6C03F4003390
:101EE0000293029BAEE705B0F0BD00BFD4CC000862
:101EF00080CC000804CE00080010014000380240E9
:101F000010090020081C002000440040F7B5FFF72E
:101F100051FF041E26DB144F57F8240010B3134D55
:101F2000A601AB591A68120606D5DB68190603D557
:101F30000F4B01211B689847AB591A68920608D5C8
:101F4000DB68980605D50A4B57F824001B6800216A
:101F50009847AB591A68110704D55A69D20744BF8C
:101F60005B68019303B0F0BD18090020541C0020E9
:101F7000140900200148FFF7C9BF00BF0014014049
:101F80000148FFF7C3BF00BF004400400148FFF70E
:101F9000BDBF00BF00100140002808DB012342093B
:101FA00000F01F0003FA00F0014B43F822007047D5
:101FB00000E100E000280DDB4309012200F01F00D2
:101FC00002FA00F02033044A42F82300BFF34F8F97
:101FD000BFF36F8F704700BF00E100E0034B196053
:101FE0004168034B43F82120704700BF14090020CB
:101FF00018090020D0E9000330B4204CA0421BD0C7
:1020000004F58064A0421DD0A4F55044A04216D02F
:10201000002420461A4D9B01EB58CAB1DA68A1B9D9
:1020200042F02002DA60174B00F110029B6843F87F
:10203000224030BCFFF7B0BF134C2520EAE7134C19
:102040002620E7E7124C4720E4E742F08002E9E768
:10205000DA6849B922F02002DA60DB6813F0800FF9
:1020600009D130BCFFF7A6BF22F08002DA60DB683E
:1020700013F0200FF4E730BC704700BF00100140A0
:10208000541C002000ED00E08D1F0008811F000897
:10209000751F000838B5456804462046FFF73AFE2C
:1020A0000028FAD0AD01034B5B595868C0F3080013
:1020B00038BD00BF541C002070B5466805460C466C
:1020C0002846FFF73DFE0028FAD0034BB601C4F3C3
:1020D00008049B595C6070BD541C0020704701F1DE
:1020E000090300EB0313DA6832B100EB0111184663
:1020F000D1F89C20126810477047416830B40346FD
:1021000071B1D0E9032000F0010402B944B14510D7
:1021100001EB60000CB149598A58996830BC1047EE
:1021200030BC704770B50646044656F8443B0D4631
:102130001B68984730462946FFF738FE2368C4F8E5
:10214000B05020465B68BDE8704018474430FFF748
:10215000A1BF10B544300C46FFF7AEFF204610BDBE
:102160002DE9F04F87B0002501932F4B0360102617
:102170002E4B43600446C0E90355C0E90555884627
:1021800091468583324629468060203009F03CFC28
:1021900004F144073246294604F1300009F034FCCA
:1021A00004F1900A2946A4F840504C22384609F020
:1021B0002BFC04F1A00B32462946504609F024FCC2
:1021C00032462946584609F01FFC019BC4F8B0303E
:1021D0003246294602A809F017FC02A95046FEF72C
:1021E000C5FB02A8FEF74CF93246294602A809F0C1
:1021F0000BFC02A95846FEF7B9FB02A8FEF740F90E
:102200004A4641463846FFF7EBFDD4F8B010384651
:10221000FFF7CCFD384606492246FFF7DFFE204691
:1022200007B0BDE8F08F00BF44CE0008FB200008D7
:10223000DF2000082DE9FF41036815460F460446DC
:102240001B6805F10906984704EB0616FEF756FCD5
:10225000FA68F36804F14408A2B10BB9FEF7C8FEAE
:1022600039463046FEF782FB012229464046FFF7F9
:10227000C1FEFEF74DFC236820465B68984704B01A
:10228000BDE8F0810BB1FEF7C7FE102200216846C1
:1022900009F0BAFB69463046FEF768FB6846FEF770
:1022A000EFF80022E1E700001FB51A4B0360044677
:1022B00010220021684609F0A7FB0022694620464B
:1022C000FFF7B8FF6846FEF7DBF8102200216846EA
:1022D00009F09AFB012269462046FFF7ABFF6846EA
:1022E000FEF7CEF804F1A000FEF7CAF804F1900062
:1022F000FEF7C6F804F13000FEF72AFB04F12000D7
:10230000FEF726FBA06908B1FEF7C2F8204604B02C
:1023100010BD00BF44CE000810B50446FFF7C4FF4F
:102320002046B421FFF79CF8204610BDDFF830D0DE
:10233000002103E00B4B5B58435004310A480B4B20
:1023400042189A42F6D30A4A02E0002342F8043BBC
:10235000084B9A42F9D300F03FFFFDF741FF704769
:1023600000000220ECD1000898020020E8070020BD
:10237000E8070020A01D0020FEE7704708B50B4BC2
:102380001A6842F400721A601A6842F480621A6095
:102390001A6842F480721A60032000F00BFA0F20D2
:1023A000FEF7B6FAFFF7E9FF002008BD003C024047
:1023B00038B50446FEF7B2FA631C1CBF054B1B7808
:1023C000054618BFE418FEF7A9FA431BA342FAD347
:1023D00038BD00BFA40300207047000010B50446BC
:1023E000002800F09980036C23B9436480F83C30E6
:1023F000FFF7F2FF236CDB0600F18C80236C23F4E3
:10240000885323F0020343F002032364434B5A68CA
:1024100022F440325A605A6861680A435A6023685D
:1024200021695A6822F480725A605A6842EA01228D
:102430005A605A68A16822F040725A605A680A438A
:102440005A609A68E16822F400629A609A680A43C6
:102450009A603349A26A8A4250D0996821F070612B
:10246000996099680A439A609A68E16A22F040523A
:102470009A609A680A439A609A68A16922F00202F7
:102480009A609A6842EA41029A60226A002A3DD024
:102490005A68616A42F400625A605A6822F46042E3
:1024A0005A605A68013942EA41325A60DA6AE1698F
:1024B00022F47002DA62DA6A013942EA0152DA621F
:1024C0009A68216B22F400729A609A6842EA41226B
:1024D0009A609A68616922F480629A609A68002022
:1024E00042EA81229A606064236C23F0030343F084
:1024F00001032364002384F83C3010BD9A6822F065
:1025000070629A609A6822F04052B4E75A6822F4E6
:102510000062CAE70120EDE70120EEE70023014059
:102520000100000F82B00023019390F83C30012B92
:102530004ED0012380F83C3003689A68D10705D556
:102540009A68D20714D4002002B070479A682149D3
:1025500042F001029A60204A1268B2FBF1F202EBEB
:1025600042020192019A002AEAD0019A013AF8E760
:10257000026C22F4E06222F0010242F480720264F2
:102580005A68510541BF026C22F4405242F4805215
:102590000264026C12F480521CBF426C22F00602EC
:1025A0004264002280F83C206FF022021A600B4A3D
:1025B0005268D20608D1986810F04050C3D19A688A
:1025C00042F080429A60BFE7054A9342BBD1F2E7EE
:1025D0000220B9E740420F00A80300200023014079
:1025E0000020014003689A6870B5560504460D4600
:1025F0000BD59B68D80508D5236C43F020032364D2
:10260000002384F83C30012070BDFEF787F90646B0
:1026100023681A6892070CD56FF012021A60226CB8
:1026200042F4007222649A6812F0405F13D00020D6
:10263000EAE7691CEDD045B9236C43F00403236439
:10264000002384F83C300320DEE7FEF767F9801BA7
:10265000A842DDD9F0E7A269002AE8D1DA6A12F4CB
:10266000700F02D09B685B05E1D4236C23F4807368
:102670002364206C10F48050D9D1236C43F0010303
:102680002364C1E70368D86C70470000F7B50023E6
:10269000019390F83C30012B66D0012380F83C3048
:1026A0000D6803688E68092DACB231D904EB440281
:1026B000DF681E3A4FF0070C0CFA02FC27EA0C0701
:1026C000DF60DF6806FA02F23A43DA6049680629F9
:1026D00001EB81022CD8596B053A1F26964021EA5E
:1026E00006015963596B04FA02F20A435A632C4AF1
:1026F000934207D1122D39D1D2F8043343F4800329
:10270000C2F80433002380F83C30184603B0F0BD13
:102710001F6905EB45024FF0070C0CFA02FC27EA93
:102720000C071F611F6906FA02F23A431A61CDE7EE
:102730000C294FF01F010BD81E6B233A914026EA5B
:1027400001011963196B04FA02F20A431A63CEE716
:10275000DE6A413A914026EA0101D962D96A04FA57
:1027600002F20A43DA62C2E70220CFE70D4B9D4234
:1027700001D0112DC6D10C494A689D4242F4000295
:102780004A60BFD1094B0A4A1B68B3FBF2F20A2325
:1027900053430193019B002BB4D0019B013BF8E70D
:1027A000002001401200001000230140A803002077
:1027B00040420F000749CA6822F4E0620302120493
:1027C00003F4E063120C134343F0BF6343F400339C
:1027D000CB60704700ED00E02DE9F341044618B9E5
:1027E000012002B0BDE8F0810368DD0710D4236842
:1027F00098075BD423681A0700F19D8023685B0764
:1028000000F1BB80A269002A40F01C810020E8E7AB
:10281000A54B9A6802F00C02042A07D09A6802F0CD
:102820000C02082A0AD15A68510207D59E4B1B6830
:102830009A03DCD56368002BD9D1D1E76268B2F581
:10284000803F11D11A6842F480321A60FEF766F8B0
:10285000954E054633689B03C9D4FEF75FF8401BCD
:102860006428F7D90320BCE78F4DB2F5A02F2B6861
:1028700007D143F480232B602B6843F480332B6013
:10288000E4E723F480332B602B6823F480232B6050
:10289000002ADBD1FEF742F806462B689F03A6D537
:1028A000FEF73CF8801B6428F7D9DBE77E4B9A687B
:1028B00012F00C0F07D09A6802F00C02082A11D10E
:1028C0005B685E020ED4784B1A68950702D5E26801
:1028D000012A85D11A68216922F0F80242EAC10270
:1028E0001A6087E7E268714BB2B101221A60FEF705
:1028F00015F86D4D06462B68980707D52B68226999
:1029000023F0F80343EAC2032B6073E7FEF706F8EF
:10291000801B0228EFD9A5E71A60FDF7FFFF624E82
:102920000546336899077FF565AFFDF7F7FF401B54
:102930000228F6D996E762695D4B7AB101221A60E6
:10294000FDF7ECFF584E0546736F9F073FF556AFF6
:10295000FDF7E4FF401B0228F6D983E71A60FDF774
:10296000DDFF514E0546736F98077FF547AFFDF7C2
:10297000D5FF401B0228F6D974E74B4B1A6C12F0B6
:10298000805228D101921A6C42F080521A641B6C5A
:1029900003F080530193019B0127464D2B68D90515
:1029A0001BD5A368404D012B27D12B6F43F00103AA
:1029B0002B67FDF7B3FF3C4E054641F28838336F75
:1029C0009B0739D5002F3FF41DAF374A136C23F016
:1029D0008053136416E70027DFE72B6843F4807306
:1029E0002B60FDF79BFF06462B68DA05D9D4FDF76F
:1029F00095FF801B0228F7D934E7052B04D12B6FF4
:102A000043F004032B67D0E72A6F22F001022A6704
:102A10002A6F22F004022A67002BCAD1FDF77EFF3D
:102A200041F2883806462B6F9807CBD5FDF776FF25
:102A3000801B4045F7D915E7FDF770FF401B404567
:102A4000BDD90FE7184DAB6803F00C03082B3FF41A
:102A5000C7AE194E0023022A336035D1FDF75EFF61
:102A600007462B68990129D4D4E907321343626AD7
:102A700043EA8213E26A43EA0263A26A5208013A15
:102A800043EA02436B6001233360FDF747FF064DC5
:102A900004462B689A013FF5B9AEFDF73FFF001BD6
:102AA0000228F6D9DEE600BF0038024000004742A7
:102AB000800E47420070004060004742FDF72EFF45
:102AC000C01B0228CDD9CDE6FDF728FF04462B68B0
:102AD0009B017FF59BAEFDF721FF001B0228F6D975
:102AE000C0E600BF134908B58B6803F00C03042B44
:102AF0001CD0082B1CD14A684B68496813F480032A
:102B000014BF0D480D48C1F3881118BF002302F00F
:102B10003F02A1FB000108F0DFF8064B5B68C3F33E
:102B2000014301335B00B0FBF3F008BD0248FCE752
:102B30000248FAE70038024000127A000024F4004C
:102B40002DE9F0410D46044610B90120BDE8F081A1
:102B5000434B1A6802F00F028A4227D32268970774
:102B60002CD4D00740D43E4B1A6802F00F02AA4280
:102B700065D8226851076BD4130707D5394A2169F4
:102B8000936823F4604343EAC1039360FFF7AAFF0D
:102B9000344B354A9B68C3F30313D35CD840334BA3
:102BA00018600F20FDF7B4FE0020CFE7CAB21A70FC
:102BB0001B6803F00F038B42C7D1CFE7294B12F0FC
:102BC000040F1EBF996841F4E0519960160742BF97
:102BD000996841F4604199602249A0688B6823F0AC
:102BE000F00303438B60BCE762681E4B012A1CD1D3
:102BF0001B6813F4003FA8D01A4EB36823F00303F8
:102C00001343B360FDF78AFE41F288380746B36884
:102C1000626803F00C03B3EB820FA4D0FDF77EFED5
:102C2000C01B4045F3D9032090E7911E01291B6882
:102C300002D813F0007FDEE713F0020FDBE7EAB201
:102C40001A701B6803F00F03AB427FF47EAF90E76E
:102C50000449E0688B6823F4E05303438B608BE7FF
:102C6000003C02400038024054CF0008A803002076
:102C7000044B054A9B68C3F38223D35C034A106864
:102C8000D84070470038024064CF0008A8030020F5
:102C9000044B054A9B68C3F34233D35C034A106874
:102CA000D84070470038024064CF0008A8030020D5
:102CB0000F2303600B4B9A6802F0030242609A688C
:102CC00002F0F00282609A6802F4E052C2609B68EF
:102CD000DB0803F4E0530361034B1B6803F00F03AD
:102CE0000B60704700380240003C02407047000013
:102CF000224A036890420ED0B0F1804F0BD0A2F56B
:102D00007C42904207D002F58062904203D002F5E7
:102D10008062904215D14A6823F070031343174A2A
:102D2000904219D0B0F1804F16D0A2F57C4290426B
:102D300012D002F5806290420ED002F5806290427D
:102D40000AD00F4A904207D002F58062904203D029
:102D500002F58062904203D1CA6823F440731343A2
:102D600003608B68C3620B688362044B984204BFA4
:102D70000B69036301234361704700BF00000140FA
:102D80000040014010B50446A0B190F8393003F07E
:102D9000FF021BB980F83820FFF7A8FF0223206844
:102DA00084F83930211DFFF7A3FF012384F839305F
:102DB000002010BD0120FCE7036A10B501248C40FF
:102DC00023EA04030362036A02FA01F10B4303627C
:102DD00010BD000010B5044601220068FFF7ECFFAB
:102DE0002368064A934202BF5A6C42F400425A6476
:102DF0001A6842F001021A60002010BD0000014074
:102E00002DE9F8430368C1681A69044622F4405268
:102E10000A431A612569A268D968C0692A436569AD
:102E200021F416412A4321F00C0102430A43DA60DF
:102E30005A69A16922F440720A43B0F5004F5A6101
:102E4000774A79D1934203D002F58062934243D10D
:102E5000FFF71EFF636819254FF0640868435B00A5
:102E6000B0FBF3F3B3FBF8F31F01FFF711FF636847
:102E700068435B00B0FBF3F6FFF70AFF6368684343
:102E80005B00B0FBF3F3B3FBF8F308FB1363DB0069
:102E90003233B3FBF8F35B0003F4F876FFF7F8FE88
:102EA000626868435200B0FBF2F9FFF7F1FE636815
:102EB000226868435B00B0FBF3F3B3FBF8F308FB55
:102EC0001393DB003233B3FBF8F303F007033B4407
:102ED00033449360BDE8F883FFF7CAFE63681925A1
:102EE0004FF0640868435B00B0FBF3F3B3FBF8F307
:102EF0001F01FFF7BDFE636868435B00B0FBF3F69C
:102F0000FFF7B6FE636868435B00B0FBF3F3B3FB07
:102F1000F8F308FB1363DB003233B3FBF8F35B0019
:102F200003F4F876FFF7A4FE626868435200B0FB32
:102F3000F2F9FFF79DFEBAE7934202D0394A934275
:102F40003FD1FFF7A5FE636819254FF06408684379
:102F50009B00B0FBF3F3B3FBF8F31E01FFF798FE01
:102F6000636868439B00B0FBF3F7FFF791FE63686B
:102F700068439B00B0FBF3F3B3FBF8F308FB137358
:102F80001B013233B3FBF8F303F0F007FFF780FEC9
:102F9000626868439200B0FBF2F9FFF779FE63685C
:102FA000226868439B00B0FBF3F3B3FBF8F308FB24
:102FB00013931B013233B3FBF8F303F00F033B43CE
:102FC00086E7FFF755FE636819254FF064086843EC
:102FD0009B00B0FBF3F3B3FBF8F31E01FFF748FED1
:102FE000636868439B00B0FBF3F7FFF741FE63683B
:102FF00068439B00B0FBF3F3B3FBF8F308FB1373D8
:103000001B013233B3FBF8F303F0F007FFF730FE98
:10301000626868439200B0FBF2F9FFF729FEBEE751
:103020000010014000140140704710B5044640B341
:1030300090F8393003F0FF021BB980F83820FFF711
:10304000F3FF2268242384F83930D36823F4005333
:10305000D3602046FFF7D4FE23681A6922F4904219
:103060001A615A6922F02A025A61DA6842F400525F
:10307000DA6000202023E06384F8393084F83A30A5
:1030800010BD0120FCE77047704700207047F8B57D
:103090000368DB6D0D4604468F1898472E46BE42E6
:1030A000236806D05B6D16F8011B20469847013057
:1030B000F5D1236820461B6E9847701BF8BDF8B504
:1030C0000368DB6D0D4604468F1898472E46BE42B6
:1030D000236807D09B6D20469847431C02D006F812
:1030E000010BF4E7236820461B6E9847701BF8BD60
:1030F0000020704700207047704700000F4B13B549
:103100000022044640F8043BFDF734FA0C4B2360E0
:103110006C336360002363610A492046FEF7ECF9D3
:103120000346606128B90090024601460648FDF753
:10313000A5FDFEF70BF8204602B010BDB0C8000890
:10314000CCCE000854CE0008190101800A4B03F1CF
:103150000802743310B5044602604360406907F00A
:10316000BDFF064B236020465C3340F8043FFDF76B
:103170001FFA204610BD00BFC4CE000860CE000874
:1031800038B503680446DB6D0D4698470122606937
:10319000002108F0F3F96169284608F0E5F9236891
:1031A00005461B6E20469847284638BD7FB50F223E
:1031B0000223CDE90123032100234FF4805201A80B
:1031C000CDE903320593FFF7BBFCB0FA80F040096C
:1031D00007B05DF804FB00000D4AD2F8883043F4D4
:1031E0007003C2F888300B4B1A68002142F00102CC
:1031F0001A6099601A6822F0847222F480321A6090
:10320000054A5A601A6822F480221A60D960704711
:1032100000ED00E0003802401030002410B58EB000
:103220001C4B002400941A6C42F080521A641B6CF0
:10323000194A03F080530093009B0194136823F410
:10324000404343F400431360136803F44043019385
:10325000A042019B4FF0010302930CBF4FF4803357
:103260004FF4A023022203934FF48003CDE90823F7
:103270000423C822CDE90A320C9308230DEB030086
:103280000D93FFF7A9FA18B9FFF790FF0EB010BD24
:103290002046FBE7003802400070004010B58EB0B9
:1032A00000241A4B00941A6C42F080521A641B6C72
:1032B000174A03F080530093009B0194136823F492
:1032C000404343F4004313601368039403F4404302
:1032D0000193019B0323029301230593102306937B
:1032E0000223C822CDE908340823CDE90A320DEBC8
:1032F00003000422CDE90C23FFF76EFA18B9FFF79B
:1033000055FF0EB010BD2046FBE700BF003802405D
:103310000070004008B50120FFF780FF28B9FFF7D3
:10332000BDFF10B90148FDF795FC08BD40CF00086E
:10333000174A1849936803F00C03042B10B50DD0FD
:10334000082B0DD0144B0B60114B144A9B68C3F330
:103350000313D25C0B68D3400B6010BD104BF2E737
:103360005468506852686302C2F388124CBF0C4B19
:10337000094B00F03F00B3FBF0F35343044A52689B
:10338000C2F3014201325200B3FBF2F3DBE700BFAC
:1033900000380240A80300200024F40054CF0008A5
:1033A00000127A00074B084A13601A69910707D583
:1033B000DA68920704D56FF002021A61FEF74CBB7F
:1033C000704700BF000C0040181D002000487047E7
:1033D0006CCF000830B589B001A903A8FFF768FCDD
:1033E000FFF746FC002302931E4B01901A6C1E4C03
:1033F00042F008021A641A6C02F008020292029A61
:103400001A6A42F008021A621A6A22F008021A6264
:10341000069AA3F50B3323604FF0FF33E360134BA1
:10342000F2B9B0FBF3F00138002560600E48256169
:10343000A5606561FFF7A6FC0D4B0E4A9B68C3F8BB
:1034400008210D4B4FF480225A6007482946FFF7A8
:10345000C1FC2268D36823F00203D36009B030BDF9
:103460004000DEE700380240181D002040420F00F7
:1034700000ED00E0A533000800E100E00448026828
:10348000D36823F00203D3600021FFF7A3BC00BF81
:10349000181D0020014B586A704700BF000C004007
:1034A000054B1B686FF0020258631A61DA6842F03C
:1034B0000202DA60704700BF181D0020064B1B682F
:1034C0006FF002021A615A6942F002025A61DA6828
:1034D00042F00202DA607047181D0020034B1A68A0
:1034E000D36823F00203D360704700BF181D00208B
:1034F000024B1B686FF002021A617047181D002012
:1035000010B584B001902949019A13465B00134419
:103510009B000B4408331B78002B2DD15020FDF766
:103520008BFF03461C462149019A13465B00134456
:103530009B000B44B3F9003019462046FCF7BEFE51
:103540001A49019A13465B0013449B000B44043351
:103550001C601649019A13465B0013449B000B4400
:10356000083303221A70019A13465B0013449B0030
:103570000E4A1344039315E00C49019A13465B006D
:1035800013449B000B4408331B78032B08D1019A8A
:1035900013465B0013449B00044A1344039301E069
:1035A00000230393039B184604B010BDE8030020DA
:1035B00084B003900B4601928DF80B3000BF04B02D
:1035C000704700B589B00390029113468DF807301B
:1035D000039B0593059B002B0ED0059B5B6818464B
:1035E000FCF740FE10EE103A184607F04DF8024680
:1035F0000B46CDE9062305E04FF000024FF0000333
:10360000CDE906230299DDE90623C1E9002300BFC5
:1036100009B05DF804FB82B0019000BF02B07047B2
:1036200082B0019000BF02B0704700B585B0019034
:10363000019B0393039B002B0ED0039B5B68002B25
:1036400004D01A680432126818469047039B00227F
:103650005A60039B00221A7200BF05B05DF804FB9C
:1036600084B00190009100238DF80F309DF90F3048
:10367000184604B07047000000B585B00190009175
:1036800000238DF80B30019B002B02D14FF0FF334C
:1036900058E0009B002B02D14FF0FF3352E02B4B40
:1036A000D3E900014FF000024FF0404307F0ACFABD
:1036B0000346002B06D0009BD3E900232349C1E930
:1036C000002305E0214BD3E900230099C1E9002341
:1036D0001E4BD3E90023019B5B681B681C4A1360E7
:1036E000019B5B685B681B4A1360019B5B689B687E
:1036F000194A1360019B5B68DB68184A1360184B1A
:1037000000221A6000F056FF002303930023039366
:1037100007E0144A039B144942F82310039B01332A
:103720000393039B002BF4D000F0C0FB03468DF8FD
:103730000B309DF90B30002B02D10C4B01221A707B
:103740009DF90B30184605B05DF804FBB803002066
:10375000980900209C090020A0090020A40900204D
:10376000A80900202409002011460008960900201D
:1037700000B587B0019000238DF817300023049323
:1037800000238DF80F302E4B1B78DBB2002B0CBFC3
:1037900001230023DBB28DF80E302A4B02221A706F
:1037A000019B002B0BD1264B1B78DBB2002B06D1E3
:1037B000254B1B78DBB2002B01D1012300E0002355
:1037C0008DF80F3017E00A20FEF7F2FD049B03F599
:1037D0001C5310330493019BB3F1FF3F05D0049AAF
:1037E000019B9A4201D9012300E000238DF80F309C
:1037F000002000F099FB124B1B78DBB2002B08D1A4
:10380000114B1B78DBB2002B03D19DF80F30002B3E
:10381000D9D00C4B03221A709DF80F30002B02D028
:103820009C238DF817309DF80E30002B01D000F04E
:10383000E9FF9DF91730184607B05DF804FB00BF9B
:1038400094090020960900209509002000B587B052
:1038500003468DED000BADF80E3000238DF81730C8
:1038600001238DF816304FF000024FF00003DDE920
:10387000000107F0D3F90346002B02D04FF0FF33CD
:1038800052E0BDF80E30FF2B02D94FF0FF334BE072
:10389000274B1B78DBB2032B04D0254B1B78DBB204
:1038A000012B02D1224B04221A70BDF80E30002BDE
:1038B0001BD1BDF80E301F4A52F82330002B14D014
:1038C00001F012FB03468DF815309DF81530022BE0
:1038D0000BD1BDF80E30174A52F82330BDF80E2038
:1038E0001046984703468DF81630BDF80E30ADF8F7
:1038F0001230BDF80E3018469DED000B00F038FA7E
:103900009DF81630002B08D0BDF81230184601F093
:10391000C5FA03468DF8173004E0BDF8123018469A
:1039200001F00DFB9DF91730184607B05DF804FB58
:10393000960900202409002000B583B000238DF8EB
:103940000730002000F0F0FA03468DF807309DF9AB
:103950000730184603B05DF804FB000000B583B0E3
:1039600000238DF807300B4B06221A7000F078FB0D
:1039700003468DF80730084B00221A6000F0CCFE99
:10398000044B00221A709DF90730184603B05DF809
:1039900004FB00BF9609002024090020024B1B787D
:1039A000DBB21846704700BF95090020024B1B7818
:1039B000DBB21846704700BFAC09002000B583B0E9
:1039C0004FF000024FF00003CDE90023154B1B78A8
:1039D0005A1CD1B2134A1170002B09D0124B01228C
:1039E0001A60104B1B78013BDAB20E4B1A7016E0CE
:1039F00062B600BF0D4B1B68D3E90823CDE9002355
:103A000000F0C6F89DED000B0020FFF71FFF72B617
:103A100000BF044B1B78013BDAB2024B1A7003B0B3
:103A20005DF804FB2C0900202809002074CF000851
:103A300000B585B0504B0393504B029300238DF893
:103A400007304F4B00221A704E4B00221A7001DFD4
:103A5000FEF794FCFFF76CFC4B4B1B6800221A60CE
:103A600000210020FFF7FCFD03468DF807309DF98B
:103A70000730002B02D09DF9073078E000F0C4F841
:103A8000414B1B685A68404B1B6838331946104637
:103A9000FFF7F2FD03468DF807309DF90730002B44
:103AA0000DD14FF0FF30FFF763FEFFF777FF0346BE
:103AB000002B04D0344B1B68012283F840209DED7D
:103AC000030A06F023F9FFF771FF0346002B0CD120
:103AD000FFF764FF0346002B07D12B4B1B6893F8BD
:103AE0004030002B01D1012300E00023DAB2254B46
:103AF0001A7062B600BF30E0FFF71EFF03468DF874
:103B00000730FFF753FF0346002B0AD1FFF746FFAC
:103B10000346002B05D11C4B1B6893F84030002B4B
:103B200001D0012300E00023DAB2154B1A70144BC8
:103B30001B78DBB2002B0CBF01230023DBB21A463B
:103B4000104B1A700E4B1B78DBB2002B05D00F4BBD
:103B50001B680E4A23F0010313600A4B1B78DBB28B
:103B6000002BC9D100F0D8F8FFF7F8FE0023184663
:103B700005B05DF804FB00BFCDCC4C3E0000C84250
:103B80005D1D00205C1D002074CF000810E000E0E7
:103B900010B5184BD3E90401174BD3E9002307F004
:103BA00033F80346002B05D1134BD3E90023114909
:103BB000C1E904230F4BDB681846FFF72CFD0D4BC2
:103BC000DB6807220D491846FFF7FBFC0C4B9A6A8D
:103BD00001329A629B6A184606F034FD084BD3E91D
:103BE0000C23074C06F0A8FD02460B46C4E9082347
:103BF00000BF10BD681D0020B0030020601D002024
:103C0000300900200000000000B585B036494FF0B3
:103C10000002364BC1E90E23334931A3D3E9002317
:103C2000C1E90C23304B324A9A602F4B314ADA609B
:103C30002D4B314A1A612C4B304A5A612A4B304A7B
:103C40005A602F4B2F4A1A602E4B2F4A1A602D4B69
:103C50002D4A5A60244A244B5B6818329A60224AE3
:103C6000214B5B6808325A601F4A1F4B5B68203249
:103C7000DA60264B01221A70244B00225A60234935
:103C80004FF00002224BC1E90423204B00221A709E
:103C9000204BD3E900231D49C1E904231B4B0393A7
:103CA0001A4B00221A72194B01225A6010230293F8
:103CB0000298FFF725FC0246039BDA6000238DF88B
:103CC0000730124BDB689DF8071000221846FFF7FB
:103CD0006FFC0E4B01221A7200BF05B05DF804FBA9
:103CE0009A9999999999C93F300900200000244078
:103CF000967B3809A260C8E8C414441DFD6B984C3B
:103D0000780900208C09002078CF0008681D002069
:103D10000000F0BFB003002008B50D4B1B78002B4E
:103D200014D10B4B01221A70094B5B68012B0DD18A
:103D3000074B1B7A002B09D0054BDB681846FFF7B1
:103D40006FFC034BDB681846FFF76FFC00BF08BD34
:103D5000681D002084B0039002910192039B029A97
:103D60001A60039B0433019A1A6000BF04B07047C5
:103D700070B58AB08DED020B0346ADF80630BDF884
:103D80000630002B77D14FF00002414BDDE90201F4
:103D900006F0D2FC02460B46CDE906239FED381B08
:103DA0009DED060B06F088F953EC102B10461946D2
:103DB00006F072FF034605930023099332A3D3E96B
:103DC0000023DDE9060106F047FF0346002B0ED075
:103DD0002DA3D3E90023DDE9060106F0D7FD024655
:103DE0000B461046194606F057FF03460993099AF9
:103DF00005992848FFF7AEFF274BD3E900014FF0A4
:103E00000002264B06F000FF0346002B2ED1224B6A
:103E1000D3E900014FF000024FF0404306F0F4FEFA
:103E20000346002B22D11C4BD3E90001DDE902231C
:103E300006F0CAFA02460B4614461D464FF0000231
:103E4000174BDDE9020106F077FC02460B46012123
:103E50000E462046294606F0E1FE0346002B01D11E
:103E600000231E46F3B21A460E4B1A700E49DDE9C6
:103E70000223C1E9002300BF0AB070BDAFF3008088
:103E8000000000000000F0410000E0FFFFFFEF41F4
:103E900000408F40B8090020B80300200000F0BFA8
:103EA0000000B03CAC090020C009002000B585B07E
:103EB000002302930023019300238DF80F3019494A
:103EC0004FF000024FF00003C1E9002301AA02AB4A
:103ED0001146184605F046FC029B019A1146184609
:103EE00003F0C2FE03468DF80F309DF90F30002B12
:103EF00002D09DF90F3010E001AA02AB114618461E
:103F000005F042FC029B019A1146184600F0E8FEBB
:103F100003468DF80F309DF90F30184605B05DF857
:103F200004FB00BFB009002000B585B003468DF842
:103F3000073000238DF80F3000238DF80E3000205D
:103F4000FEF736FA00238DF80D3004F01DF8034615
:103F50008DF80F309DF90F30002B08D09DF90F30F0
:103F600013F1020F03D001238DF80E300DE09DF800
:103F70000D30002B04D19DF90F3013F1020F01D049
:103F8000012300E000238DF80D309DF80E30002B4A
:103F90001FD100F0D1FE03468DF80F309DF90F3090
:103FA000002B08D09DF90F3013F1020F03D001232D
:103FB0008DF80E300DE09DF80D30002B04D19DF9E9
:103FC0000F3013F1020F01D0012300E000238DF820
:103FD0000D309DF80E30002B1FD103F061FF03461A
:103FE0008DF80F309DF90F30002B08D09DF90F3060
:103FF00013F1020F03D001238DF80E300DE09DF870
:104000000D30002B04D19DF90F3013F1020F01D0B8
:10401000012300E000238DF80D309DF80730002BC0
:1040200010D00020FEF7C4F99DF80E30002B03D10C
:104030009DF80D30002B01D1012300E000238DF805
:104040000E3002E001238DF80E309DF80E30002B6B
:104050003FF478AF9DF90F30184605B05DF804FBCA
:1040600000B583B000238DF80230314B1B78DBB2F2
:10407000002B02D0002000F053FF00F035FF034674
:104080008DF80330002301930FE00A20FEF790F92A
:10409000019B03F51C53103301930120FFF744FFEC
:1040A00000F022FF03468DF80330019B214A934222
:1040B00003D89DF80330002BE7D100F01BFF034627
:1040C0008DF8023004F09CF803468DF802301A4B4C
:1040D00000221A70194B00221A70194B00221A6024
:1040E000184B00221A60184B00221A60174B00224E
:1040F0001A60174B00221A6016494FF000024FF069
:104100004043C1E900230A4B00221A700822002113
:10411000114807F079FC11494FF000024FF00003FD
:10412000C1E900239DF90230184603B05DF804FB95
:10413000AC090020FF2C31019409002095090020D2
:10414000980900209C090020A0090020A409002053
:10415000A8090020B8030020B8090020C0090020E9
:1041600000B587B0634B1B680593059B002B00F0DF
:10417000BC80614B1B78DBB2002B04D15D4B1B680C
:10418000002B00F0B2805D4B1B78DBB2022B40F0BD
:10419000AC805B4B1B78002B40F0A780059BD3E9DC
:1041A0000023CDE90223574B1B78002B00F08E80B3
:1041B000554B1B78DBB2002B04D0534B1B78DBB282
:1041C000022B01D1012300E000238DF807304E4B74
:1041D0001B78DBB2012B04D04B4B1B78DBB2022BDC
:1041E00001D1012300E000238DF806309DF807304F
:1041F000002B33D0454BD3E90023DDE9020106F063
:1042000021FD0346002B0AD0414BD3E900013F4B6F
:10421000D3E9002306F002FD0346002B14D13B4BEB
:10422000D3E90023DDE9020106F016FD0346002B69
:1042300014D0374BD3E90001344BD3E9002306F007
:10424000E3FC0346002B09D0324B1B68002B02D144
:10425000314B01221A702A4B01221A709DF8063048
:10426000002B33D0294BD3E90023DDE9020106F00E
:10427000D5FC0346002B0AD0254BD3E90001234B84
:10428000D3E9002306F0DEFC0346002B14D11F4BBC
:10429000D3E90023DDE9020106F0B6FC0346002B5A
:1042A00014D01B4BD3E90001184BD3E9002306F0CF
:1042B000D3FC0346002B09D0164B1B68002B02D100
:1042C000154B01221A700E4B01221A700C4B1B78F1
:1042D000002B0CBF01230023DBB21A46094B1A70D6
:1042E0000B49DDE90223C1E9002300BF07B05DF8F7
:1042F00004FB00BFCC090020D0090020EC090020FD
:10430000FB090020F8090020E8090020D809002056
:10431000F0090020E4090020FA09002082B00023FF
:104320008DF80730984B1B78DBB2002B19D1974BD7
:1043300000221A70964B00221A70964B1B78DBB243
:10434000002B30D0904B02221A70924B00221A7030
:10435000914B1B78DBB2002B25D101238DF8073060
:1043600021E08C4B00221A70884B1B78DBB2002BAB
:1043700009D08A4B00221A70834B00221A70834B9B
:1043800000221A700FE0844B1B78DBB2002B03D1A4
:1043900001238DF8073006E07D4B1B788DF8073040
:1043A0007B4B00221A70784B1B78DBB2042B00F297
:1043B000D18001A252F823F0CD430008FF44000849
:1043C000E7430008B944000841440008714B1B78DA
:1043D000DBB2002B00F0CB806B4B02221A706D4BCE
:1043E00000221A70C3E09DF80730002B00F0C18056
:1043F0006B4B1B68002B0DDD674B1B78DBB2012B71
:1044000008D1674B1B681A46664B1A605E4B032245
:104410001A70AEE0644B1B68002B0AD05F4B012280
:104420001A70614B1B685F4A1360574B04221A7065
:104430009FE05A4B00221A70534B00221A7098E0EA
:10444000584B1B68002B04D0564B1B68013B554A48
:104450001360544B1B68002B40F08D80534B1B782E
:10446000DBB2012B06D14D4B00221A70464B0022C5
:104470001A7080E04E4B1B68002B0AD0474B00227D
:104480001A704B4B1B68474A13603F4B01221A704E
:1044900071E09DF80730002B07D0434B1B68414A61
:1044A0001360394B04221A7065E03C4B00221A70ED
:1044B000354B02221A705EE03A4B1B68002B04D089
:1044C000384B1B68013B374A1360364B1B68002B87
:1044D00053D1354B1B68002B0AD0304B01221A7088
:1044E000314B1B682F4A1360274B04221A7044E09B
:1044F0002A4B00221A70244B00221A703DE0294BEF
:104500001B68002B04D0274B1B68013B254A136016
:10451000244B1B68002B32D19DF80730002B15D09F
:10452000214B1B68002B0AD01C4B01221A701E4B1A
:104530001B681C4A1360144B04221A701FE0174BAF
:1045400000221A70104B00221A7018E00E4B022243
:104550001A7014E0114B00221A700D4B00221A70D1
:104560000A4B00221A70084B00221A7008E000BFA4
:1045700006E000BF04E000BF02E000BF00E000BFB3
:1045800000BF02B0704700BFEC090020E90900201D
:10459000FB090020C4030020EA090020FA090020DA
:1045A000E4090020FC090020C0030020EB090020E2
:1045B000E00900200E494FF000024FF00003C1E96E
:1045C00000230C4B00221A700B4B1B78DAB20B4BFA
:1045D0001A700B4B00221A700A4B00221A700A4BF9
:1045E00000221A60094B00221A70002318467047F7
:1045F000F0090020F8090020EA090020F90900204C
:10460000FA090020FB090020FC090020EC09002029
:1046100000B585B00346ADF80630BDF80630002B76
:1046200041D1334B1B78DAB2324B1B789A4214BF1C
:1046300001230023DBB28DF80F302D4B1B78DAB24B
:104640002C4B1A709DF80F30002B0BD02A4B0022F8
:104650001A702A4B00221A70294B00221A60294B2B
:1046600000221A70224B1B78DBB2012B1BD1254B89
:104670001B78DBB2002B04D1234B1B78DBB2002B61
:1046800008D1204B1B78DBB2012B0CD11C4B1B68D3
:10469000012B08D11A4B00221A601B4B00221A7002
:1046A000184B02221A70124B1B78DBB2012B08D177
:1046B000164B1B889BB2BDF806209A4201D1FFF72A
:1046C0004FFDBDF80630002B05D1FFF727FE104B3C
:1046D00000221A7006E00E4B1B78002B02D00D4B07
:1046E0001B7801E0044B1B78184605B05DF804FB0D
:1046F000EA090020F9090020FA090020FB0900203E
:10470000FC090020EC090020C4030020C809002097
:10471000010A0020000A002025494FF000024FF056
:104720000003C1E90023234B00221A70224B002210
:104730001A70224B00221A70214B00221A80214B42
:1047400000221A70204B00221A70204B00221A609F
:104750001F4B00221A701F4B00221A701E4B0022A2
:104760001A601E4B00221A701D494FF000024FF0D4
:104770000003C1E900231B4B4FF47A721A601A4BF5
:1047800000221A60194B00221A60194B00221A707D
:10479000184B01221A70184B00221A70174B002276
:1047A0001A70174B00221A7000231846704700BF7A
:1047B000F0090020F8090020EC090020F909002088
:1047C000C8090020FA090020FB090020FC0900208C
:1047D000000A0020010A0020CC090020D009002096
:1047E000D8090020C0030020E0090020E4090020CF
:1047F000E8090020C4030020E9090020EA0900209C
:10480000EB090020184B1B78DBB2002B29D1174B8A
:104810001B78DBB2002B0BD0154B1B78DBB2002BC7
:1048200006D1144B01221A70134B01221A7018E0A2
:104830000F4B1B78DBB21A460C4B1B78DBB2002BFC
:104840000CBF01230023DBB21340002B06D0094B21
:1048500000221A70084B01221A7002E0064B002257
:104860001A7000BF704700BFEA090020C40300208F
:10487000E9090020000A0020010A002000B587B0E5
:10488000039002910192009300238DF8173003F0FA
:10489000B1FC0490039B1B68184603F0C5FE002181
:1048A000009803F034FC0246029B1A6003F020FCDF
:1048B0000246019B1A60029B1B68002B10D0029BD2
:1048C0001B681946049804F0C7F90246039B1A6056
:1048D000039B1B68002B06D1F6238DF8173002E0EE
:1048E000F8238DF817309DF91730184607B05DF89A
:1048F00004FB00B585B0039002910192039B002B4D
:1049000002D0039803F090FE019B00221A6000235E
:10491000184605B05DF804FB84B003900291019243
:10492000019B02221A604FF0FF33184604B0704713
:1049300084B003460A468DF8073013468DF80630DA
:1049400005238DF80F309DF80730F02B03D9002395
:104950008DF80F302EE09DF80730E32B07D99DF836
:104960000730F02B03D801238DF80F3022E09DF89B
:104970000730D22B03D99DF80730E22B0BD99DF8D5
:104980000730C02B0BD19DF80630002B07D09DF8C7
:104990000630022B03D802238DF80F300AE09DF871
:1049A0000730C72B06D99DF80730D22B02D8032336
:1049B0008DF80F309DF80F30184604B07047000096
:1049C00000B58DB00390029101920093039B0A936E
:1049D0000A9B1B788DF8273000238DF82F309DF827
:1049E0002730C02B06D1029B012B03D90A9B5B7891
:1049F0008DF82F30374B1B78002B41D09DF82F209E
:104A00009DF8273011461846FFF792FF03468DF8B0
:104A10001B3000238DF82E309DF81B30052B24D041
:104A20009DF81B302C4A52F8233005930023049341
:104A3000059B002B19D09DF82720059B1046984711
:104A40000490049B002B14BF01230023DBB28DF8DC
:104A50002E309DF82E30002B07D0049B5A68019B06
:104A60001A60049B9A68009B1A609DF82E30002BF8
:104A70002CD1019B194A1A60009B194A1A6025E043
:104A80009DF82730FF2B1BD1134B1B680893019B0C
:104A900000221A60009B00221A60089B002B15D090
:104AA000089BFF2098470790079B002B0ED0079B81
:104AB0005A68019B1A60079B9A68009B1A6005E080
:104AC000019B084A1A60009B00221A6000BF0DB0CB
:104AD0005DF804FB030A0020080A002019490008B9
:104AE000794B0008F348000882B003468DF8073080
:104AF000034A9DF80730137000BF02B0704700BF33
:104B0000030A0020014B1B7818467047040A002056
:104B100082B003468DF80730054B1A789DF80730B0
:104B20001343DAB2024B1A7000BF02B0704700BFE5
:104B3000040A002082B003468DF807309DF9073043
:104B4000DB435AB2054B1B785BB213405BB2DAB25F
:104B5000024B1A7000BF02B0704700BF040A002069
:104B6000014B1B7818467047050A0020014B1B8833
:104B700018467047060A002086B00346029101924B
:104B80008DF80F309DF90F30002B05D1029B049357
:104B9000049BFF221A706BE0029B0593059BFE228B
:104BA0001A709DF90F300F330E2B5DD801A252F809
:104BB00023F000BF614C0008594C0008514C00081C
:104BC000494C0008414C0008314C0008394C0008A1
:104BD000294C0008214C0008194C0008114C000811
:104BE000F94B0008F14B0008014C0008094C000883
:104BF000059B30225A703BE0059B29225A7037E012
:104C0000059B22225A7033E0059B20225A702FE028
:104C1000059B00225A702BE0059B23225A7027E047
:104C2000059B21225A7023E0059B11225A701FE038
:104C3000059B27225A701BE0059B2A225A7017E019
:104C4000059B10225A7013E0059B24225A700FE036
:104C5000059B28225A700BE0059B26225A7007E01C
:104C6000059B31225A7003E0059B20225A70FFE712
:104C700000BF06B0704700BF86B0034602910192A4
:104C80008DF80F3000230593029B002B24D00023C6
:104C900004930023049318E0049A13465B00134422
:104CA0009B001A46029B13441B789DF80F209A42E2
:104CB00008D1049A13465B0013449B001A46029BDA
:104CC00013440593049B01330493049A019B9A4275
:104CD00002D2059B002BDFD0059B184606B070471B
:104CE00000B583B001900091114B1B78002B02D0CE
:104CF0006FF00B0318E000F0B1FB00F0B9FB0346C6
:104D00000C4A136001F0AAFF01F0C4FF0346094AF0
:104D1000936002F0CDFE02F0D3FE0346054A5360D5
:104D2000034B01221A700023184603B05DF804FB00
:104D3000020A0020080A002000B58DB000238DF87B
:104D40002F3000238DF82E30002309930023089381
:104D500000230793002306930023059300230A935F
:104D600000230493002303934B4B1B78002B02D1A9
:104D70006FF008038CE007A808AA09A906AB009306
:104D80000346002003F03CF903468DF82F309DF9CF
:104D90002F30002B09D09DF92F3013F1040F04D0D0
:104DA0009DF92F3013F1050F66D1099B002B05D01B
:104DB000079A069B1A44089B9A4203D9F8238DF858
:104DC0002F305CE0099A079B13440A93069903ABC2
:104DD00004AA0A98FFF7F4FD049B002B03D1F423E7
:104DE0008DF82F304BE0049B0998079905AA984746
:104DF00003468DF82E30039B002B3AD0059B002BE9
:104E000037D000238DF82F30069A059B9A4208D29E
:104E1000059B07AA08A909A8FFF730FD03468DF8EE
:104E20002F30069B1A4600210A9806F0EDFD9DF9E9
:104E30002F30002B1DD1099A079B13440A93039B23
:104E4000059A9DF92E000A99984709990898079B99
:104E5000059A0192009303460A464FF6FF7101201E
:104E600002F0A0FF03468DF82F309DF92F30002B64
:104E700004D19DF92F300BE000BF00E000BF099B7B
:104E8000002B03D0099B184603F0CEFB9DF92F3071
:104E900018460DB05DF804FB020A002000B585B08D
:104EA0000346ADF8063000238DF80F30002302933F
:104EB0000C4B1B78002B02D16FF008030EE004F0BE
:104EC000F5FF0290BDF8063000220299184601F065
:104ED000F1FE03468DF80F309DF90F30184605B0EE
:104EE0005DF804FB020A0020014B1B78184670474E
:104EF000030A002008B502F0F3FD02F0CBFC00F03D
:104F0000C7FA10220021044806F07EFD034B002260
:104F10001A700023184608BD080A0020020A002063
:104F200000B585B00190019802F06EFA03468DF845
:104F30000F309DF90F30184605B05DF804FB00B541
:104F400085B00346ADF8063001238DF80F309DF88B
:104F50000F20BDF806300021184601F0ABFE0346D5
:104F60008DF80E309DF90E30184605B05DF804FB43
:104F700000B585B003468DF807300123039303F095
:104F8000FFF802909DF807200299039BB1FBF3F311
:104F90009A4234BF01230023DBB2184605B05DF806
:104FA00004FB000000B585B001900B468DF803307E
:104FB00000F076FA0390054B1B781A460399019886
:104FC00006F014FD00BF05B05DF804FB200A0020C8
:104FD00000B589B003900291019200238DF81F3033
:104FE000039A029B13440693069B059300238DF8B6
:104FF000133002F089FB03468DF813309DF813300F
:10500000002B05D1019B02221A606FF00A0321E0F8
:10501000059B5B78002B03D0059B5B78012B01D1AE
:10502000012300E000238DF813309DF81330002B8E
:1050300005D1019B02221A606FF001030AE00120F2
:10504000FFF752FD00238DF81F30019B08221A60E4
:105050009DF91F30184609B05DF804FB00B587B014
:105060000346029101928DF80F309DF90F30002B0D
:1050700022D1029B059308220021059806F0C4FC6A
:10508000059BFF221A700522059B5A700022059B82
:105090009A7003F075F80346DAB2059BDA7003F0F4
:1050A00069F803469AB2059B9A80059B01229A7182
:1050B000059B0122DA7106E09DF90F30019A0299F1
:1050C0001846FFF759FD00BF07B05DF804FB00B5B7
:1050D00087B003900291019201238DF8173002F0FE
:1050E00013FB03468DF817309DF81730002B05D1C0
:1050F000019B02221A606FF00A0306E00020FFF70E
:10510000F3FC019B01221A600023184607B05DF8EA
:1051100004FB84B0039002910192019B06221A6065
:105120000023184604B0704700B587B003460291CB
:1051300001928DF80F30029B0593062200210598FD
:1051400006F062FC059BFF221A70FFF7DBFC0346AA
:105150001A46059B5A70FFF703FD03461A46059B46
:105160009A70FFF703FD03461A46059B9A8000BF1D
:1051700007B05DF804FB00B587B00390029101927F
:1051800000238DF8173002F0A7FA03468DF8173088
:105190009DF81730002B03D003F013F802F0ADFA9E
:1051A000019B02221A606FF00403184607B05DF8F5
:1051B00004FB00B589B003900291019200238DF8A1
:1051C0001F30039A029B13440693069B059300230A
:1051D0008DF81330059B5A68059BDB7819461046FD
:1051E00000F064F903468DF813309DF81330002B5E
:1051F00005D1019B02221A606FF00B0304E0019BB2
:1052000001221A609DF91F30184609B05DF804FBB1
:1052100000B58BB003900291019200238DF82730E6
:10522000039A029B13440893089B079300238DF86D
:105230001B3000F035F90590079B5B781846FFF7A7
:1052400097FE03468DF81B309DF81B30002B05D1CF
:10525000019B02221A606FF0010313E0059B002BF3
:1052600005D1019B02221A606FF00B030AE0079B35
:105270005A78064B1A70054B1B785A1C019B1A6012
:105280009DF9273018460BB05DF804FB200A00207A
:1052900000B589B00346029101928DF80F309DF957
:1052A0000F30002B2AD100F0FBF80790029B0693E9
:1052B00001220021069806F0A7FB069BFF221A7028
:1052C000079B002B21D0134B1B780133019A9A4284
:1052D0001BD1029B0133059300238DF813309DF8F9
:1052E000133019460598FFF75DFE0A4B1B781846E8
:1052F00000F0F8F8074B00221A7006E09DF90F3015
:10530000019A02991846FFF737FC00BF09B05DF813
:1053100004FB00BF200A002000B589B00390029171
:10532000019200238DF81F30039A029B13440693C9
:10533000069B059300238DF81330059B5B78184678
:10534000FFF716FE03468DF813309DF81330002B3F
:1053500005D1019B02221A606FF001031FE0059B3B
:105360005A68059BDB781946104600F09FF8034603
:105370008DF813309DF81330002B05D1019B0222CC
:105380001A606FF00B030AE0059B5A78064B1A70FF
:10539000054B1B785A1C019B1A609DF91F3018465B
:1053A00009B05DF804FB00BF200A002000B589B0F9
:1053B0000346029101928DF80F309DF90F30002BBA
:1053C0002AD100F06DF80790029B0693012200217C
:1053D000069806F019FB069BFF221A70079B002B0C
:1053E00021D0134B1B780133019A9A421BD1029BA7
:1053F0000133059300238DF813309DF813301946BF
:105400000598FFF7CFFD0A4B1B78184600F06AF8A5
:10541000074B00221A7006E09DF90F30019A02999D
:105420001846FFF7A9FB00BF09B05DF804FB00BFF9
:10543000200A002000B583B003468DF807309DF8A0
:105440000730072204491846FFF716FC03461846A2
:1054500003B05DF804FB00BF7CCF000808B503482B
:1054600000F00CF800F04EF800BF08BD35540008FD
:10547000014B1B6818467047240A002082B0019037
:10548000024A019B136000BF02B07047240A00204B
:1054900008B500F039F80020FFF7F0FF00BF08BDA5
:1054A000014B1B6818467047180A002082B0019013
:1054B0000B468DF803309DF80330002B04D1019B7F
:1054C000002B01D1002307E0054A019B1360044A29
:1054D0009DF8033013710123184602B0704700BFD6
:1054E000180A002082B003468DF80730044B1A6872
:1054F0009DF807301344024A136000BF02B07047A2
:10550000180A002000BF704700BF704700B585B083
:105510000346ADF8063000238DF80F3004F09AFCF6
:1055200003460D4A13600D4B1B68002B0CBF012373
:105530000023DBB28DF80F309DF80F30002B04D123
:10554000054B1B68184604F091FC9DF80F30184677
:1055500005B05DF804FB00BF340A0020300A0020CB
:1055600000B583B00346ADF80630044B1B681846FF
:1055700004F07CFC00BF03B05DF804FB340A00209B
:1055800000B583B00346ADF8063004F063FC034673
:10559000074A1360074B1B680133064A1360044B2C
:1055A0001B68184604F062FC00BF03B05DF804FB02
:1055B000340A0020300A002000B583B00346ADF85D
:1055C000063004F047FC0346074A1360074B1B688C
:1055D000013B064A1360044B1B68184604F046FC66
:1055E00000BF03B05DF804FB340A0020300A00203D
:1055F00082B00346ADF806300F4B1968BDF806209F
:1056000013465B001344DB000B445B79022B0BD089
:10561000094B1968BDF8062013465B001344DB00F4
:105620000B445B79032B01D1012300E00023DBB2A3
:10563000184602B0704700BF280A002000B583B0AA
:1056400000238DF807300023ADF804300023ADF8B7
:1056500004300CE0BDF804301846FFF7C9FF0346DC
:105660008DF80730BDF804300133ADF804300A4B33
:105670009B88BDF804209A4203D29DF80730002B86
:10568000E8D09DF80730002B0CBF01230023DBB2CC
:10569000184603B05DF804FB280A002084B00346D6
:1056A000ADF806300B468DF8053013468DF8043002
:1056B0002B4B1B68002B4BD0294B9B88BDF8062039
:1056C0009A4245D2264B1968BDF8062013465B0066
:1056D0001344DB000B441B68002B39D0204B1968A6
:1056E000BDF8062013465B001344DB000B441B7916
:1056F0009DF805209A422BD2194B1968BDF8062057
:1057000013465B001344DB000B4419689DF8052029
:1057100013465B001344DB000B441B68002B17D0BF
:105720000F4B1968BDF8062013465B001344DB00DD
:105730000B4419689DF8052013465B001344DB00F9
:105740000B441B799DF804209A4201D2012300E00A
:1057500000238DF80F309DF80F30184604B07047C5
:10576000280A002084B0034600928DF807300B46CB
:105770008DF8063000238DF80F309DF80630ADF817
:105780000C309DF80730FF2B06D1BDF80C30FF2BF5
:1057900002D801238DF80F309DF80F30184604B061
:1057A000704782B003468DF807309DF8073023F02C
:1057B0001003002B0CBF01230023DBB2184602B0FC
:1057C000704784B003468DF8073000238DF80F3002
:1057D0009DF80730002B07D09DF80730012B03D030
:1057E0009DF80730022B02D101238DF80F309DF870
:1057F0000F30184604B0704784B003468DF8073068
:1058000000238DF80F309DF80730002B07D09DF84E
:105810000730012B03D09DF80730022B02D1012362
:105820008DF80F309DF80F30184604B070470123F3
:105830001846704784B00346ADF80630184B196817
:10584000BDF8062013465B001344DB000B441B7BB2
:10585000022B0FD1124B1968BDF8062013465B00CE
:105860001344DB000B44DA880E4B1B889A4201D0AC
:10587000012300E000238DF80F309DF80F30002B3E
:1058800005D0BDF80630002B01D1012300E0002334
:105890008DF80F309DF80F30184604B0704700BFE8
:1058A000280A0020D003002000B589B00190002311
:1058B0008DF81330002307930023069300230693EB
:1058C0002AE0019B1968069A13465B001344DB002B
:1058D0000B449B68019AD28902FB03F301330593C1
:1058E00000230393069B002B08D1019B1B7A03F036
:1058F0001003002B02D0059B04330593012105986A
:1059000002F005FC0390039A079B9A4201D9039B7E
:105910000793069B01330693019B1B791A46069B4E
:105920009342CEDB019B1B791A4613465B0013445E
:105930001946019B14331A46079802F039FF0346B3
:105940008DF813309DF91330002B03D0019B4FF0DD
:10595000FF325A619DF91330184609B05DF804FB17
:1059600000B583B00190019B5B69B3F1FF3F04D0A8
:10597000019B5B69184603F029F8019B4FF0FF3249
:105980005A6100BF03B05DF804FB000000B58BB0A6
:1059900003900291019200238DF82730039A029B15
:1059A00013440893089B0793079B9A78DB781B02A4
:1059B0001343ADF81A30079B1B798DF81930079BFC
:1059C0005B798DF8183000238DF817309DF818207A
:1059D0009DF81910BDF81A301846FFF75FFE034610
:1059E0008DF817309DF81730002B05D1019B02224E
:1059F0001A606FF0010327E0BDF81A301846FFF770
:105A0000F7FD0346002B0CBF01230023DBB28DF80A
:105A100017309DF81730002B05D1019B02221A6028
:105A20006FF0070310E00A4ABDF81A301380084AE5
:105A30009DF819309370064A9DF81830D370019B79
:105A400001221A609DF9273018460BB05DF804FB5F
:105A5000CC03002000B58BB003900291019200238B
:105A60008DF82730039A029B13440893089B0793F1
:105A7000444B1B88ADF81A30424B9B788DF8193097
:105A8000404BDB788DF818300023059300238DF808
:105A900013309DF818209DF81910BDF81A301846DB
:105AA000FFF7FCFD03468DF813309DF81330002BF3
:105AB00005D1019B02221A606FF005035EE0BDF87C
:105AC0001A301846FFF794FD0346002B0CBF012344
:105AD0000023DBB28DF813309DF81330002B05D175
